{
  "_format": "hh-sol-artifact-1",
  "contractName": "BrianNFT",
  "sourceName": "contracts/Elon.sol",
  "abi": [
    {
      "inputs": [],
      "stateMutability": "nonpayable",
      "type": "constructor"
    },
    {
      "inputs": [
        {
          "internalType": "address",
          "name": "sender",
          "type": "address"
        },
        {
          "internalType": "uint256",
          "name": "tokenId",
          "type": "uint256"
        },
        {
          "internalType": "address",
          "name": "owner",
          "type": "address"
        }
      ],
      "name": "ERC721IncorrectOwner",
      "type": "error"
    },
    {
      "inputs": [
        {
          "internalType": "address",
          "name": "operator",
          "type": "address"
        },
        {
          "internalType": "uint256",
          "name": "tokenId",
          "type": "uint256"
        }
      ],
      "name": "ERC721InsufficientApproval",
      "type": "error"
    },
    {
      "inputs": [
        {
          "internalType": "address",
          "name": "approver",
          "type": "address"
        }
      ],
      "name": "ERC721InvalidApprover",
      "type": "error"
    },
    {
      "inputs": [
        {
          "internalType": "address",
          "name": "operator",
          "type": "address"
        }
      ],
      "name": "ERC721InvalidOperator",
      "type": "error"
    },
    {
      "inputs": [
        {
          "internalType": "address",
          "name": "owner",
          "type": "address"
        }
      ],
      "name": "ERC721InvalidOwner",
      "type": "error"
    },
    {
      "inputs": [
        {
          "internalType": "address",
          "name": "receiver",
          "type": "address"
        }
      ],
      "name": "ERC721InvalidReceiver",
      "type": "error"
    },
    {
      "inputs": [
        {
          "internalType": "address",
          "name": "sender",
          "type": "address"
        }
      ],
      "name": "ERC721InvalidSender",
      "type": "error"
    },
    {
      "inputs": [
        {
          "internalType": "uint256",
          "name": "tokenId",
          "type": "uint256"
        }
      ],
      "name": "ERC721NonexistentToken",
      "type": "error"
    },
    {
      "anonymous": false,
      "inputs": [
        {
          "indexed": true,
          "internalType": "address",
          "name": "owner",
          "type": "address"
        },
        {
          "indexed": true,
          "internalType": "address",
          "name": "approved",
          "type": "address"
        },
        {
          "indexed": true,
          "internalType": "uint256",
          "name": "tokenId",
          "type": "uint256"
        }
      ],
      "name": "Approval",
      "type": "event"
    },
    {
      "anonymous": false,
      "inputs": [
        {
          "indexed": true,
          "internalType": "address",
          "name": "owner",
          "type": "address"
        },
        {
          "indexed": true,
          "internalType": "address",
          "name": "operator",
          "type": "address"
        },
        {
          "indexed": false,
          "internalType": "bool",
          "name": "approved",
          "type": "bool"
        }
      ],
      "name": "ApprovalForAll",
      "type": "event"
    },
    {
      "anonymous": false,
      "inputs": [
        {
          "indexed": false,
          "internalType": "uint256",
          "name": "_fromTokenId",
          "type": "uint256"
        },
        {
          "indexed": false,
          "internalType": "uint256",
          "name": "_toTokenId",
          "type": "uint256"
        }
      ],
      "name": "BatchMetadataUpdate",
      "type": "event"
    },
    {
      "anonymous": false,
      "inputs": [
        {
          "indexed": false,
          "internalType": "uint256",
          "name": "_tokenId",
          "type": "uint256"
        }
      ],
      "name": "MetadataUpdate",
      "type": "event"
    },
    {
      "anonymous": false,
      "inputs": [
        {
          "indexed": true,
          "internalType": "address",
          "name": "from",
          "type": "address"
        },
        {
          "indexed": true,
          "internalType": "address",
          "name": "to",
          "type": "address"
        },
        {
          "indexed": true,
          "internalType": "uint256",
          "name": "tokenId",
          "type": "uint256"
        }
      ],
      "name": "Transfer",
      "type": "event"
    },
    {
      "inputs": [
        {
          "internalType": "address",
          "name": "to",
          "type": "address"
        },
        {
          "internalType": "uint256",
          "name": "tokenId",
          "type": "uint256"
        }
      ],
      "name": "approve",
      "outputs": [],
      "stateMutability": "nonpayable",
      "type": "function"
    },
    {
      "inputs": [
        {
          "internalType": "address",
          "name": "owner",
          "type": "address"
        }
      ],
      "name": "balanceOf",
      "outputs": [
        {
          "internalType": "uint256",
          "name": "",
          "type": "uint256"
        }
      ],
      "stateMutability": "view",
      "type": "function"
    },
    {
      "inputs": [
        {
          "internalType": "uint256",
          "name": "tokenId",
          "type": "uint256"
        }
      ],
      "name": "getApproved",
      "outputs": [
        {
          "internalType": "address",
          "name": "",
          "type": "address"
        }
      ],
      "stateMutability": "view",
      "type": "function"
    },
    {
      "inputs": [
        {
          "internalType": "address",
          "name": "owner",
          "type": "address"
        },
        {
          "internalType": "address",
          "name": "operator",
          "type": "address"
        }
      ],
      "name": "isApprovedForAll",
      "outputs": [
        {
          "internalType": "bool",
          "name": "",
          "type": "bool"
        }
      ],
      "stateMutability": "view",
      "type": "function"
    },
    {
      "inputs": [],
      "name": "mintNFT",
      "outputs": [
        {
          "internalType": "uint256",
          "name": "",
          "type": "uint256"
        }
      ],
      "stateMutability": "nonpayable",
      "type": "function"
    },
    {
      "inputs": [],
      "name": "name",
      "outputs": [
        {
          "internalType": "string",
          "name": "",
          "type": "string"
        }
      ],
      "stateMutability": "view",
      "type": "function"
    },
    {
      "inputs": [
        {
          "internalType": "uint256",
          "name": "tokenId",
          "type": "uint256"
        }
      ],
      "name": "ownerOf",
      "outputs": [
        {
          "internalType": "address",
          "name": "",
          "type": "address"
        }
      ],
      "stateMutability": "view",
      "type": "function"
    },
    {
      "inputs": [
        {
          "internalType": "address",
          "name": "from",
          "type": "address"
        },
        {
          "internalType": "address",
          "name": "to",
          "type": "address"
        },
        {
          "internalType": "uint256",
          "name": "tokenId",
          "type": "uint256"
        }
      ],
      "name": "safeTransferFrom",
      "outputs": [],
      "stateMutability": "nonpayable",
      "type": "function"
    },
    {
      "inputs": [
        {
          "internalType": "address",
          "name": "from",
          "type": "address"
        },
        {
          "internalType": "address",
          "name": "to",
          "type": "address"
        },
        {
          "internalType": "uint256",
          "name": "tokenId",
          "type": "uint256"
        },
        {
          "internalType": "bytes",
          "name": "data",
          "type": "bytes"
        }
      ],
      "name": "safeTransferFrom",
      "outputs": [],
      "stateMutability": "nonpayable",
      "type": "function"
    },
    {
      "inputs": [
        {
          "internalType": "address",
          "name": "operator",
          "type": "address"
        },
        {
          "internalType": "bool",
          "name": "approved",
          "type": "bool"
        }
      ],
      "name": "setApprovalForAll",
      "outputs": [],
      "stateMutability": "nonpayable",
      "type": "function"
    },
    {
      "inputs": [
        {
          "internalType": "bytes4",
          "name": "interfaceId",
          "type": "bytes4"
        }
      ],
      "name": "supportsInterface",
      "outputs": [
        {
          "internalType": "bool",
          "name": "",
          "type": "bool"
        }
      ],
      "stateMutability": "view",
      "type": "function"
    },
    {
      "inputs": [],
      "name": "symbol",
      "outputs": [
        {
          "internalType": "string",
          "name": "",
          "type": "string"
        }
      ],
      "stateMutability": "view",
      "type": "function"
    },
    {
      "inputs": [
        {
          "internalType": "uint256",
          "name": "tokenId",
          "type": "uint256"
        }
      ],
      "name": "tokenURI",
      "outputs": [
        {
          "internalType": "string",
          "name": "",
          "type": "string"
        }
      ],
      "stateMutability": "view",
      "type": "function"
    },
    {
      "inputs": [
        {
          "internalType": "address",
          "name": "from",
          "type": "address"
        },
        {
          "internalType": "address",
          "name": "to",
          "type": "address"
        },
        {
          "internalType": "uint256",
          "name": "tokenId",
          "type": "uint256"
        }
      ],
      "name": "transferFrom",
      "outputs": [],
      "stateMutability": "nonpayable",
      "type": "function"
    }
  ],
  "bytecode": "0x60806040523480156200001157600080fd5b506040518060400160405280600c81526020017f427269616e4e6a6f726f676500000000000000000000000000000000000000008152506040518060400160405280600581526020017f425249414e00000000000000000000000000000000000000000000000000000081525081600090816200008f919062000324565b508060019081620000a1919062000324565b5050506200040b565b600081519050919050565b7f4e487b7100000000000000000000000000000000000000000000000000000000600052604160045260246000fd5b7f4e487b7100000000000000000000000000000000000000000000000000000000600052602260045260246000fd5b600060028204905060018216806200012c57607f821691505b602082108103620001425762000141620000e4565b5b50919050565b60008190508160005260206000209050919050565b60006020601f8301049050919050565b600082821b905092915050565b600060088302620001ac7fffffffffffffffffffffffffffffffffffffffffffffffffffffffffffffffff826200016d565b620001b886836200016d565b95508019841693508086168417925050509392505050565b6000819050919050565b6000819050919050565b600062000205620001ff620001f984620001d0565b620001da565b620001d0565b9050919050565b6000819050919050565b6200022183620001e4565b6200023962000230826200020c565b8484546200017a565b825550505050565b600090565b6200025062000241565b6200025d81848462000216565b505050565b5b8181101562000285576200027960008262000246565b60018101905062000263565b5050565b601f821115620002d4576200029e8162000148565b620002a9846200015d565b81016020851015620002b9578190505b620002d1620002c8856200015d565b83018262000262565b50505b505050565b600082821c905092915050565b6000620002f960001984600802620002d9565b1980831691505092915050565b6000620003148383620002e6565b9150826002028217905092915050565b6200032f82620000aa565b67ffffffffffffffff8111156200034b576200034a620000b5565b5b62000357825462000113565b6200036482828562000289565b600060209050601f8311600181146200039c576000841562000387578287015190505b62000393858262000306565b86555062000403565b601f198416620003ac8662000148565b60005b82811015620003d657848901518255600182019150602085019450602081019050620003af565b86831015620003f65784890151620003f2601f891682620002e6565b8355505b6001600288020188555050505b505050505050565b6124cd806200041b6000396000f3fe608060405234801561001057600080fd5b50600436106100ea5760003560e01c80636352211e1161008c578063a22cb46511610066578063a22cb4651461025d578063b88d4fde14610279578063c87b56dd14610295578063e985e9c5146102c5576100ea565b80636352211e146101df57806370a082311461020f57806395d89b411461023f576100ea565b8063095ea7b3116100c8578063095ea7b31461016d57806314f710fe1461018957806323b872dd146101a757806342842e0e146101c3576100ea565b806301ffc9a7146100ef57806306fdde031461011f578063081812fc1461013d575b600080fd5b6101096004803603810190610104919061192e565b6102f5565b6040516101169190611976565b60405180910390f35b610127610356565b6040516101349190611a21565b60405180910390f35b61015760048036038101906101529190611a79565b6103e8565b6040516101649190611ae7565b60405180910390f35b61018760048036038101906101829190611b2e565b610404565b005b61019161041a565b60405161019e9190611b7d565b60405180910390f35b6101c160048036038101906101bc9190611b98565b610491565b005b6101dd60048036038101906101d89190611b98565b610593565b005b6101f960048036038101906101f49190611a79565b6105b3565b6040516102069190611ae7565b60405180910390f35b61022960048036038101906102249190611beb565b6105c5565b6040516102369190611b7d565b60405180910390f35b61024761067f565b6040516102549190611a21565b60405180910390f35b61027760048036038101906102729190611c44565b610711565b005b610293600480360381019061028e9190611db9565b610727565b005b6102af60048036038101906102aa9190611a79565b610744565b6040516102bc9190611a21565b60405180910390f35b6102df60048036038101906102da9190611e3c565b610857565b6040516102ec9190611976565b60405180910390f35b6000634906490660e01b7bffffffffffffffffffffffffffffffffffffffffffffffffffffffff1916827bffffffffffffffffffffffffffffffffffffffffffffffffffffffff1916148061034f575061034e826108eb565b5b9050919050565b60606000805461036590611eab565b80601f016020809104026020016040519081016040528092919081815260200182805461039190611eab565b80156103de5780601f106103b3576101008083540402835291602001916103de565b820191906000526020600020905b8154815290600101906020018083116103c157829003601f168201915b5050505050905090565b60006103f3826109cd565b506103fd82610a55565b9050919050565b6104168282610411610a92565b610a9a565b5050565b60006007600081548092919061042f90611f0b565b9190505550600060075490506104453382610aac565b610467816040518060a001604052806064815260200161243460649139610ba5565b61048a604051806060016040528060238152602001612411602391398233610c01565b8091505090565b600073ffffffffffffffffffffffffffffffffffffffff168273ffffffffffffffffffffffffffffffffffffffff16036105035760006040517f64a0ae920000000000000000000000000000000000000000000000000000000081526004016104fa9190611ae7565b60405180910390fd5b60006105178383610512610a92565b610ca0565b90508373ffffffffffffffffffffffffffffffffffffffff168173ffffffffffffffffffffffffffffffffffffffff161461058d578382826040517f64283d7b00000000000000000000000000000000000000000000000000000000815260040161058493929190611f53565b60405180910390fd5b50505050565b6105ae83838360405180602001604052806000815250610727565b505050565b60006105be826109cd565b9050919050565b60008073ffffffffffffffffffffffffffffffffffffffff168273ffffffffffffffffffffffffffffffffffffffff16036106385760006040517f89c62b6400000000000000000000000000000000000000000000000000000000815260040161062f9190611ae7565b60405180910390fd5b600360008373ffffffffffffffffffffffffffffffffffffffff1673ffffffffffffffffffffffffffffffffffffffff168152602001908152602001600020549050919050565b60606001805461068e90611eab565b80601f01602080910402602001604051908101604052809291908181526020018280546106ba90611eab565b80156107075780601f106106dc57610100808354040283529160200191610707565b820191906000526020600020905b8154815290600101906020018083116106ea57829003601f168201915b5050505050905090565b61072361071c610a92565b8383610eba565b5050565b610732848484610491565b61073e84848484611029565b50505050565b606061074f826109cd565b50600060066000848152602001908152602001600020805461077090611eab565b80601f016020809104026020016040519081016040528092919081815260200182805461079c90611eab565b80156107e95780601f106107be576101008083540402835291602001916107e9565b820191906000526020600020905b8154815290600101906020018083116107cc57829003601f168201915b5050505050905060006107fa6111e0565b9050600081510361080f578192505050610852565b60008251111561084457808260405160200161082c929190611fc6565b60405160208183030381529060405292505050610852565b61084d846111f7565b925050505b919050565b6000600560008473ffffffffffffffffffffffffffffffffffffffff1673ffffffffffffffffffffffffffffffffffffffff16815260200190815260200160002060008373ffffffffffffffffffffffffffffffffffffffff1673ffffffffffffffffffffffffffffffffffffffff16815260200190815260200160002060009054906101000a900460ff16905092915050565b60007f80ac58cd000000000000000000000000000000000000000000000000000000007bffffffffffffffffffffffffffffffffffffffffffffffffffffffff1916827bffffffffffffffffffffffffffffffffffffffffffffffffffffffff191614806109b657507f5b5e139f000000000000000000000000000000000000000000000000000000007bffffffffffffffffffffffffffffffffffffffffffffffffffffffff1916827bffffffffffffffffffffffffffffffffffffffffffffffffffffffff1916145b806109c657506109c582611260565b5b9050919050565b6000806109d9836112ca565b9050600073ffffffffffffffffffffffffffffffffffffffff168173ffffffffffffffffffffffffffffffffffffffff1603610a4c57826040517f7e273289000000000000000000000000000000000000000000000000000000008152600401610a439190611b7d565b60405180910390fd5b80915050919050565b60006004600083815260200190815260200160002060009054906101000a900473ffffffffffffffffffffffffffffffffffffffff169050919050565b600033905090565b610aa78383836001611307565b505050565b600073ffffffffffffffffffffffffffffffffffffffff168273ffffffffffffffffffffffffffffffffffffffff1603610b1e5760006040517f64a0ae92000000000000000000000000000000000000000000000000000000008152600401610b159190611ae7565b60405180910390fd5b6000610b2c83836000610ca0565b9050600073ffffffffffffffffffffffffffffffffffffffff168173ffffffffffffffffffffffffffffffffffffffff1614610ba05760006040517f73c6ac6e000000000000000000000000000000000000000000000000000000008152600401610b979190611ae7565b60405180910390fd5b505050565b80600660008481526020019081526020016000209081610bc59190612196565b507ff8e1a15aba9398e019f0b49df1a4fde98ee17ae345cb5f6b5e2c27f5033e8ce782604051610bf59190611b7d565b60405180910390a15050565b610c9b838383604051602401610c1993929190612268565b6040516020818303038152906040527f1c7ec448000000000000000000000000000000000000000000000000000000007bffffffffffffffffffffffffffffffffffffffffffffffffffffffff19166020820180517bffffffffffffffffffffffffffffffffffffffffffffffffffffffff83818316178352505050506114cc565b505050565b600080610cac846112ca565b9050600073ffffffffffffffffffffffffffffffffffffffff168373ffffffffffffffffffffffffffffffffffffffff1614610cee57610ced8184866114e6565b5b600073ffffffffffffffffffffffffffffffffffffffff168173ffffffffffffffffffffffffffffffffffffffff1614610d7f57610d30600085600080611307565b6001600360008373ffffffffffffffffffffffffffffffffffffffff1673ffffffffffffffffffffffffffffffffffffffff168152602001908152602001600020600082825403925050819055505b600073ffffffffffffffffffffffffffffffffffffffff168573ffffffffffffffffffffffffffffffffffffffff1614610e02576001600360008773ffffffffffffffffffffffffffffffffffffffff1673ffffffffffffffffffffffffffffffffffffffff168152602001908152602001600020600082825401925050819055505b846002600086815260200190815260200160002060006101000a81548173ffffffffffffffffffffffffffffffffffffffff021916908373ffffffffffffffffffffffffffffffffffffffff160217905550838573ffffffffffffffffffffffffffffffffffffffff168273ffffffffffffffffffffffffffffffffffffffff167fddf252ad1be2c89b69c2b068fc378daa952ba7f163c4a11628f55a4df523b3ef60405160405180910390a4809150509392505050565b600073ffffffffffffffffffffffffffffffffffffffff168273ffffffffffffffffffffffffffffffffffffffff1603610f2b57816040517f5b08ba18000000000000000000000000000000000000000000000000000000008152600401610f229190611ae7565b60405180910390fd5b80600560008573ffffffffffffffffffffffffffffffffffffffff1673ffffffffffffffffffffffffffffffffffffffff16815260200190815260200160002060008473ffffffffffffffffffffffffffffffffffffffff1673ffffffffffffffffffffffffffffffffffffffff16815260200190815260200160002060006101000a81548160ff0219169083151502179055508173ffffffffffffffffffffffffffffffffffffffff168373ffffffffffffffffffffffffffffffffffffffff167f17307eab39ab6107e8899845ad3d59bd9653f200f220920489ca2b5937696c318360405161101c9190611976565b60405180910390a3505050565b60008373ffffffffffffffffffffffffffffffffffffffff163b11156111da578273ffffffffffffffffffffffffffffffffffffffff1663150b7a0261106d610a92565b8685856040518563ffffffff1660e01b815260040161108f94939291906122fb565b6020604051808303816000875af19250505080156110cb57506040513d601f19601f820116820180604052508101906110c8919061235c565b60015b61114f573d80600081146110fb576040519150601f19603f3d011682016040523d82523d6000602084013e611100565b606091505b50600081510361114757836040517f64a0ae9200000000000000000000000000000000000000000000000000000000815260040161113e9190611ae7565b60405180910390fd5b805181602001fd5b63150b7a0260e01b7bffffffffffffffffffffffffffffffffffffffffffffffffffffffff1916817bffffffffffffffffffffffffffffffffffffffffffffffffffffffff1916146111d857836040517f64a0ae920000000000000000000000000000000000000000000000000000000081526004016111cf9190611ae7565b60405180910390fd5b505b50505050565b606060405180602001604052806000815250905090565b6060611202826109cd565b50600061120d6111e0565b9050600081511161122d5760405180602001604052806000815250611258565b80611237846115aa565b604051602001611248929190611fc6565b6040516020818303038152906040525b915050919050565b60007f01ffc9a7000000000000000000000000000000000000000000000000000000007bffffffffffffffffffffffffffffffffffffffffffffffffffffffff1916827bffffffffffffffffffffffffffffffffffffffffffffffffffffffff1916149050919050565b60006002600083815260200190815260200160002060009054906101000a900473ffffffffffffffffffffffffffffffffffffffff169050919050565b80806113405750600073ffffffffffffffffffffffffffffffffffffffff168273ffffffffffffffffffffffffffffffffffffffff1614155b15611474576000611350846109cd565b9050600073ffffffffffffffffffffffffffffffffffffffff168373ffffffffffffffffffffffffffffffffffffffff16141580156113bb57508273ffffffffffffffffffffffffffffffffffffffff168173ffffffffffffffffffffffffffffffffffffffff1614155b80156113ce57506113cc8184610857565b155b1561141057826040517fa9fbf51f0000000000000000000000000000000000000000000000000000000081526004016114079190611ae7565b60405180910390fd5b811561147257838573ffffffffffffffffffffffffffffffffffffffff168273ffffffffffffffffffffffffffffffffffffffff167f8c5be1e5ebec7d5bd14f71427d1e84f3dd0314c0f7b2291e5b200ac8c7c3b92560405160405180910390a45b505b836004600085815260200190815260200160002060006101000a81548173ffffffffffffffffffffffffffffffffffffffff021916908373ffffffffffffffffffffffffffffffffffffffff16021790555050505050565b6114e3816114db611678611699565b63ffffffff16565b50565b6114f18383836116a4565b6115a557600073ffffffffffffffffffffffffffffffffffffffff168373ffffffffffffffffffffffffffffffffffffffff160361156657806040517f7e27328900000000000000000000000000000000000000000000000000000000815260040161155d9190611b7d565b60405180910390fd5b81816040517f177e802f00000000000000000000000000000000000000000000000000000000815260040161159c929190612389565b60405180910390fd5b505050565b6060600060016115b984611765565b01905060008167ffffffffffffffff8111156115d8576115d7611c8e565b5b6040519080825280601f01601f19166020018201604052801561160a5781602001600182028036833780820191505090505b509050600082602001820190505b60011561166d578080600190039150507f3031323334353637383961626364656600000000000000000000000000000000600a86061a8153600a8581611661576116606123b2565b5b04945060008503611618575b819350505050919050565b60006a636f6e736f6c652e6c6f679050600080835160208501845afa505050565b6118b8819050919050565b60008073ffffffffffffffffffffffffffffffffffffffff168373ffffffffffffffffffffffffffffffffffffffff161415801561175c57508273ffffffffffffffffffffffffffffffffffffffff168473ffffffffffffffffffffffffffffffffffffffff16148061171d575061171c8484610857565b5b8061175b57508273ffffffffffffffffffffffffffffffffffffffff1661174383610a55565b73ffffffffffffffffffffffffffffffffffffffff16145b5b90509392505050565b600080600090507a184f03e93ff9f4daa797ed6e38ed64bf6a1f01000000000000000083106117c3577a184f03e93ff9f4daa797ed6e38ed64bf6a1f01000000000000000083816117b9576117b86123b2565b5b0492506040810190505b6d04ee2d6d415b85acef81000000008310611800576d04ee2d6d415b85acef810000000083816117f6576117f56123b2565b5b0492506020810190505b662386f26fc10000831061182f57662386f26fc100008381611825576118246123b2565b5b0492506010810190505b6305f5e1008310611858576305f5e100838161184e5761184d6123b2565b5b0492506008810190505b612710831061187d576127108381611873576118726123b2565b5b0492506004810190505b606483106118a05760648381611896576118956123b2565b5b0492506002810190505b600a83106118af576001810190505b80915050919050565b6118c06123e1565b565b6000604051905090565b600080fd5b600080fd5b60007fffffffff0000000000000000000000000000000000000000000000000000000082169050919050565b61190b816118d6565b811461191657600080fd5b50565b60008135905061192881611902565b92915050565b600060208284031215611944576119436118cc565b5b600061195284828501611919565b91505092915050565b60008115159050919050565b6119708161195b565b82525050565b600060208201905061198b6000830184611967565b92915050565b600081519050919050565b600082825260208201905092915050565b60005b838110156119cb5780820151818401526020810190506119b0565b60008484015250505050565b6000601f19601f8301169050919050565b60006119f382611991565b6119fd818561199c565b9350611a0d8185602086016119ad565b611a16816119d7565b840191505092915050565b60006020820190508181036000830152611a3b81846119e8565b905092915050565b6000819050919050565b611a5681611a43565b8114611a6157600080fd5b50565b600081359050611a7381611a4d565b92915050565b600060208284031215611a8f57611a8e6118cc565b5b6000611a9d84828501611a64565b91505092915050565b600073ffffffffffffffffffffffffffffffffffffffff82169050919050565b6000611ad182611aa6565b9050919050565b611ae181611ac6565b82525050565b6000602082019050611afc6000830184611ad8565b92915050565b611b0b81611ac6565b8114611b1657600080fd5b50565b600081359050611b2881611b02565b92915050565b60008060408385031215611b4557611b446118cc565b5b6000611b5385828601611b19565b9250506020611b6485828601611a64565b9150509250929050565b611b7781611a43565b82525050565b6000602082019050611b926000830184611b6e565b92915050565b600080600060608486031215611bb157611bb06118cc565b5b6000611bbf86828701611b19565b9350506020611bd086828701611b19565b9250506040611be186828701611a64565b9150509250925092565b600060208284031215611c0157611c006118cc565b5b6000611c0f84828501611b19565b91505092915050565b611c218161195b565b8114611c2c57600080fd5b50565b600081359050611c3e81611c18565b92915050565b60008060408385031215611c5b57611c5a6118cc565b5b6000611c6985828601611b19565b9250506020611c7a85828601611c2f565b9150509250929050565b600080fd5b600080fd5b7f4e487b7100000000000000000000000000000000000000000000000000000000600052604160045260246000fd5b611cc6826119d7565b810181811067ffffffffffffffff82111715611ce557611ce4611c8e565b5b80604052505050565b6000611cf86118c2565b9050611d048282611cbd565b919050565b600067ffffffffffffffff821115611d2457611d23611c8e565b5b611d2d826119d7565b9050602081019050919050565b82818337600083830152505050565b6000611d5c611d5784611d09565b611cee565b905082815260208101848484011115611d7857611d77611c89565b5b611d83848285611d3a565b509392505050565b600082601f830112611da057611d9f611c84565b5b8135611db0848260208601611d49565b91505092915050565b60008060008060808587031215611dd357611dd26118cc565b5b6000611de187828801611b19565b9450506020611df287828801611b19565b9350506040611e0387828801611a64565b925050606085013567ffffffffffffffff811115611e2457611e236118d1565b5b611e3087828801611d8b565b91505092959194509250565b60008060408385031215611e5357611e526118cc565b5b6000611e6185828601611b19565b9250506020611e7285828601611b19565b9150509250929050565b7f4e487b7100000000000000000000000000000000000000000000000000000000600052602260045260246000fd5b60006002820490506001821680611ec357607f821691505b602082108103611ed657611ed5611e7c565b5b50919050565b7f4e487b7100000000000000000000000000000000000000000000000000000000600052601160045260246000fd5b6000611f1682611a43565b91507fffffffffffffffffffffffffffffffffffffffffffffffffffffffffffffffff8203611f4857611f47611edc565b5b600182019050919050565b6000606082019050611f686000830186611ad8565b611f756020830185611b6e565b611f826040830184611ad8565b949350505050565b600081905092915050565b6000611fa082611991565b611faa8185611f8a565b9350611fba8185602086016119ad565b80840191505092915050565b6000611fd28285611f95565b9150611fde8284611f95565b91508190509392505050565b60008190508160005260206000209050919050565b60006020601f8301049050919050565b600082821b905092915050565b60006008830261204c7fffffffffffffffffffffffffffffffffffffffffffffffffffffffffffffffff8261200f565b612056868361200f565b95508019841693508086168417925050509392505050565b6000819050919050565b600061209361208e61208984611a43565b61206e565b611a43565b9050919050565b6000819050919050565b6120ad83612078565b6120c16120b98261209a565b84845461201c565b825550505050565b600090565b6120d66120c9565b6120e18184846120a4565b505050565b5b81811015612105576120fa6000826120ce565b6001810190506120e7565b5050565b601f82111561214a5761211b81611fea565b61212484611fff565b81016020851015612133578190505b61214761213f85611fff565b8301826120e6565b50505b505050565b600082821c905092915050565b600061216d6000198460080261214f565b1980831691505092915050565b6000612186838361215c565b9150826002028217905092915050565b61219f82611991565b67ffffffffffffffff8111156121b8576121b7611c8e565b5b6121c28254611eab565b6121cd828285612109565b600060209050601f83116001811461220057600084156121ee578287015190505b6121f8858261217a565b865550612260565b601f19841661220e86611fea565b60005b8281101561223657848901518255600182019150602085019450602081019050612211565b86831015612253578489015161224f601f89168261215c565b8355505b6001600288020188555050505b505050505050565b6000606082019050818103600083015261228281866119e8565b90506122916020830185611b6e565b61229e6040830184611ad8565b949350505050565b600081519050919050565b600082825260208201905092915050565b60006122cd826122a6565b6122d781856122b1565b93506122e78185602086016119ad565b6122f0816119d7565b840191505092915050565b60006080820190506123106000830187611ad8565b61231d6020830186611ad8565b61232a6040830185611b6e565b818103606083015261233c81846122c2565b905095945050505050565b60008151905061235681611902565b92915050565b600060208284031215612372576123716118cc565b5b600061238084828501612347565b91505092915050565b600060408201905061239e6000830185611ad8565b6123ab6020830184611b6e565b9392505050565b7f4e487b7100000000000000000000000000000000000000000000000000000000600052601260045260246000fd5b7f4e487b7100000000000000000000000000000000000000000000000000000000600052605160045260246000fdfe546865204e465420494420257320686173206265656e206d696e74656420746f20257368747470733a2f2f6d6167656e74612d666169746866756c2d626972642d3737372e6d7970696e6174612e636c6f75642f697066732f516d51334546735470563358546a4c62566e7a38394645463377546d686145697267426a4d75453969336d545a42a26469706673582212206d67a0f2d2830f8ba3c1fb0bd27b5bc12d7eccc17ab7316cd29ad4cc46fb8ef264736f6c63430008180033",
  "linkReferences": {},
  "deployedLinkReferences": {}
}